:0D01F900C294C2B77F01513AD294D2B7220E
:07023300C296D296C296228A
:09022A00BF0103D29322C293220A
:10016400EFB40700503B90017025E073217E21829B
:100174002189218D21942198219FC2908002D290BF
:10018400C291C29222C2908002D290D291C2922293
:10019400C2908002D290C291D29222C290D291D2C5
:0201A4009222A5
:1001A600E4FFC297C2B6EF25E0240EF8A680EF253D
:1001B600E0240DF8A6A0D297D2B60FBF08E47B00C4
:0401C6007A00790D35
:0101CA002212
:0C0213007F053164E4FF512A513321F9CA
:0C02060002256100021D2000021F000103
:1001E500759850438922758DFD75A882758BFDD252
:0401F5008ED29922EB
:0B021F008F992099030080FAC29922F9
:10008F00E4F50BF50C31E5511331F92095FD31A64F
:10009F008B088A09890AE4FEEE2461F522AB08AACF
:1000AF0009A90A310CFDF523E43152AB08AA09A9BD
:1000BF000A9000013125F524E92401F9E43AFA31D7
:1000CF000CE431527402250AF50AE43509F509E406
:1000DF00F525F50B750C017421250CF8E6FF511F62
:1000EF00050CE50C7002050BC39405E50B9400405D
:0D00FF00E60EBE08A37F017E0031CB808C91
:1001CB00EF1FAA0670011E4A600F7DC8DDFE7D7809
:0901DB00EDD3940040EA1D80F709
:0101E40022F8
:07023A00AE071FEE70FA226F
:03000000020003F8
:0C000300787FE4F6D8FD75812602004AE3
:10010C00BB010689828A83E0225002E722BBFE02F1
:09011C00E32289828A83E4932224
:10012500BB010CE58229F582E5833AF583E022508F
:1001350006E92582F8E622BBFE06E92582F8E222D9
:0D014500E58229F582E5833AF583E49322F3
:10015200BB010689828A83F0225002F722BBFE018C
:02016200F32286
:10000F0002008FE493A3F8E493A34003F68001F278
:10001F0008DFF48029E493A3F85407240CC8C333F2
:10002F00C4540F4420C8834004F456800146F6DFC1
:10003F00E4800B0102040810204080900206E47E49
:10004F00019360BCA3FF543F30E509541FFEE493B6
:10005F00A360010ECF54C025E060A840B8E493A37D
:10006F00FAE493A3F8E493A3C8C582C8CAC583CAA8
:10007F00F0A3C8C582C8CAC583CADFE9DEE780BE60
:0102120000EB
:00000001FF
